:020000040000FA
:1000000053EF35F0C96E12007FEF2DF0CAEC13F0FC
:1000100067EC0CF0FDD7120029EF33F0D9CFE5FFE4
:10002000E1CFD9FF00C0E5FF01C0E5FF02C0E5FF59
:1000300003C0E5FF04C0E5FF05C0E5FF06C0E5FF1E
:1000400007C0E5FF08C0E5FF09C0E5FF0AC0E5FFFE
:100050000BC0E5FF0CC0E5FF0DC0E5FF0EC0E5FFDE
:100060000FC0E5FF10C0E5FF11C0E5FF12C0E5FFBE
:1000700013C0E5FF14C0E5FF15C0E5FF16C0E5FF9E
:1000800017C0E5FF18C0E5FF19C0E5FF1AC0E5FF7E
:100090001BC0E5FF1CC0E5FF1DC0E5FF1EC0E5FF5E
:1000A0001FC0E5FF20C0E5FF21C0E5FF22C0E5FF3E
:1000B00023C0E5FF020EDBCF00F0030EDBCF01F023
:1000C000040EDBCF02F00250086E0150076E0050A4
:1000D000066EE56A100EE56E0850E56E0750E56E97
:1000E0000650E56E800EE56E040EE56EE80EE56ED8
:1000F00013EC27F0080EE126F0C403F0F1C404F07D
:10010000F2C405F0F3C406F003C007F004C008F021
:1001100005C009F006C00AF0D8800AAED8900AE3FC
:100120000A1E091E081E076C05E1082A03E1092AB8
:10013000D8B40A2AE8C40BF0E9C40CF0E86A040158
:10014000E9BFFF0E0D6E0E6EEA35EB350F6E106ACD
:100150001036EC51E844FE0B1012EC35ED35116E03
:10016000126AD8B012060F500B5C0F6E10500C586C
:10017000106E11500D58116E12500E58126ED8900C
:1001800012AED880D8A04CD01250800F800F08E15A
:10019000000E115C05E1000E105C02E1010E0F5C27
:1001A000D8B03ED00A340A30166E0930156E0830C9
:1001B000146E0730136EF6C417F0F7C418F0E86A2F
:1001C0000401F7BFFF0E196E800FF36E1650800FFB
:1001D000F35C08E11550195C05E11450185C02E16C
:1001E0001350175C1DE30E300D30166E156A153274
:1001F0000C50E8407F0B15120C300B30146E136A54
:10020000133213500401EA6F1450EB6F1550EC6F6A
:100210001650ED6FF06BF16BF26BF36B85EF04F042
:10022000D89009300C6E08300B6ED8900C320B321F
:10023000D8900C320B320A50E838E844E00B0C122C
:100240000A38E8441F0BE8B8E0090E6A073408349E
:10025000076E086A08360950E844FE0B0812E86A7F
:100260000CBEFF0E096E0A6EE86A08BEFF0E0D6E28
:10027000E56E0D50E56E0850E56E0750E56E0A50CC
:10028000E56E0950E56E0C50E56E0B50E56E14EC12
:100290001EF0076EF3CF08F0F4CF09F0E9CF0AF0B3
:1002A000080EE126F6C40BF0F7C40CF0E86A04016E
:1002B000F7BFFF0E0D6E0E6EE56E0D50E56E0C5025
:1002C000E56E0B50E56E0A50E56E0950E56E08507C
:1002D000E56E0750E56EFAEC1FF0076EF3CF08F0FD
:1002E000080EE126EEC409F0EFC40AF0E86A040142
:1002F000EFBFFF0E136E0A50176E17261334186ED9
:10030000D890173618360944E844FC0B166E09508D
:10031000E844E844030B1712156AD88006AED8905B
:10032000D8B05BD107C009F008C00AF0E86A08BE7F
:10033000FF0E136E800FF36E1250800FF35C08E116
:100340001150135C05E110500A5C02E10F50095C8A
:10035000D8B01BD10650800FF36E1850800FF35C9D
:1003600008E11750055C05E11650045C02E11550E8
:10037000035CD8B0E3D0F4C409F0F5C40AF0E86A2D
:100380000401F5BFFF0E136E146E035009260450CE
:100390000A22055013220650142209500401F06F5E
:1003A0000A50F16F1350F26F1450F36FF6C409F056
:1003B000F7C40AF0F4C413F0F5C414F00A50800F27
:1003C000F36E1450800FF35C02E11350095CD8B057
:1003D00099D0F0C419F0F1C41AF0F2C41BF0F3C4C0
:1003E0001CF0D8901B301E6E1A301D6ED8901E3235
:1003F0001D32D8901E321D321C50E838E844E00B04
:100400001E121C38E8441F0BE8B8E009206A1934B2
:100410001A341F6E206A20361B50E844FE0B20124F
:10042000E86A1EBEFF0E216E226EE86A20BEFF0E35
:10043000236EE56E2350E56E2050E56E1F50E56E8D
:100440002250E56E2150E56E1E50E56E1D50E56EA2
:1004500014EC1EF01D6EF3CF1EF0F4CF1FF0E9CFA9
:1004600020F0080EE12609C021F00AC022F0E86A57
:100470000ABEFF0E236EE56E2350E56E2250E56E38
:100480002150E56E2050E56E1F50E56E1E50E56E62
:100490001D50E56EFAEC1FF01D6EF3CF1EF0080E36
:1004A000E126E86A1EBEFF0E1F6E206E1250800FFE
:1004B000F36E2050800FF35C08E11F50115C05E1E2
:1004C0001E50105C02E11D500F5C1CE20950135CD1
:1004D000096E0A5014580A6EE86A0ABEFF0E136EBF
:1004E000146E0950195E0A501A5A13501B5A1450B0
:1004F0001C5A19500401F06F1A50F16F1B50F26F23
:100500001C50F36F1850800FF36E0401F351800FED
:10051000F35C08E1F251175C05E1F151165C02E170
:10052000F051155CD8B0CAD115500401F06F1650C7
:10053000F16F1750F26F1850F36FC0D11850800F41
:10054000F36E0650800FF35C08E10550175C05E17F
:100550000450165C02E10350155CD8B0AFD10B50CB
:10056000035C096E0C5004580A6E0D500558136E4A
:100570000E500658146E09500401F06F0A50F16FC6
:100580001350F26F1450F36F99D1F4C409F0F5C40D
:100590000AF0E86A0401F5BFFF0E136E146E0B50EB
:1005A00009260C500A220D5013220E501422095015
:1005B000035C096E0A5004580A6E13500558136EF6
:1005C00014500658146E09500401F06F0A50F16F70
:1005D0001350F26F1450F36F71D1081E076CD8B42A
:1005E000082AE86A08BEFF0E096E0A6E1250800FD4
:1005F000F36E0A50800FF35C08E10950115C05E1CD
:100600000850105C02E107500F5CD8B034D1181CC0
:100610000A6E171C096E161C086E151C076E072A39
:1006200004E1082A02E1094A0A2A0A50800FF36EFF
:100630000650800FF35C08E10550095C05E10450A9
:10064000085C02E10350075CD8B0EED0F4C413F0AC
:10065000F5C414F0E86A0401F5BFFF0E156E166EBE
:100660001350035C136E14500458146E1550055843
:10067000156E16500658166E13500401F06F145084
:10068000F16F1550F26F1650F36FF6C413F0F7C404
:1006900014F0F4C415F0F5C416F01450800FF36E86
:1006A0001650800FF35C02E11550135CD8B0A0D057
:1006B000F0C417F0F1C418F0F2C419F0F3C41AF042
:1006C000D89019301C6E18301B6ED8901C321B321B
:1006D000D8901C321B321A50E838E844E00B1C1248
:1006E0001A38E8441F0B1C1E1B6CD8B41C2A173484
:1006F00018341D6E1E6A1E361950E844FE0B1E1279
:100700001E1E1D6CD8B41E2AE86A1CBEFF0E1F6E8A
:10071000206EE86A1EBEFF0E216EE56E2150E56E6A
:100720001E50E56E1D50E56E2050E56E1F50E56EC3
:100730001C50E56E1B50E56E14EC1EF01B6EF3CFE3
:100740001CF0F4CF1DF0E9CF1EF0080EE12613C017
:100750001FF014C020F0E86A14BEFF0E216EE56E93
:100760002150E56E2050E56E1F50E56E1E50E56E7F
:100770001D50E56E1C50E56E1B50E56EFAEC1FF047
:100780001B6EF3CF1CF0080EE1261C1E1B6CD8B4A8
:100790001C2AE86A1CBEFF0E1D6E800FF36E1250FD
:1007A000800FF35C08E111501D5C05E110501C5CEA
:1007B00002E10F501B5C1CE21350155C136E1450C9
:1007C0001658146EE86A14BEFF0E0F6E106E1350AA
:1007D0001726145018220F50192210501A221750A1
:1007E0000401F06F1850F16F1950F26F1A50F36F47
:1007F0000401F351800FF36E0A50800FF35C08E19F
:100800000950F25D05E10850F15D02E10750F05D2D
:10081000D8B054D007500401F06F0850F16F095060
:10082000F26F0A50F36F4AD00650800FF36E0A50F1
:10083000800FF35C08E10950055C05E10850045C99
:1008400002E10750035CD8B039D00B500324076E87
:100850000C500420086E0D500520096E0E50062025
:100860000A6E07500401F06F0850F16F0950F26FE3
:100870000A50F36F23D0F4C407F0F5C408F0E86A17
:100880000401F5BFFF0E096E0A6E07500B260850D3
:100890000C2209500D220A500E220B5003260C5038
:1008A00004220D5005220E50062203500401F06F61
:1008B0000450F16F0550F26F0650F36FD8900401A9
:1008C000F231046EF131036ED89004320332F351E9
:1008D000E840E840C00B0412F341E8403F0BE8BA9F
:1008E000C009056E066A05BE0668EA510326EB518B
:1008F0000422EC510522ED5106220350EA6F045008
:10090000EB6F0550EC6F0650ED6FE56A100EE56E6B
:10091000800EE56E040EE56EE80EE56E0250E56EA3
:100920000150E56E0050E56E13EC27F0080EE1264D
:10093000E4CF23F0E4CF22F0E4CF21F0E4CF20F0A5
:10094000E4CF1FF0E4CF1EF0E4CF1DF0E4CF1CF0A5
:10095000E4CF1BF0E4CF1AF0E4CF19F0E4CF18F0A5
:10096000E4CF17F0E4CF16F0E4CF15F0E4CF14F0A5
:10097000E4CF13F0E4CF12F0E4CF11F0E4CF10F0A5
:10098000E4CF0FF0E4CF0EF0E4CF0DF0E4CF0CF0A5
:10099000E4CF0BF0E4CF0AF0E4CF09F0E4CF08F0A5
:1009A000E4CF07F0E4CF06F0E4CF05F0E4CF04F0A5
:1009B000E4CF03F0E4CF02F0E4CF01F0E4CF00F0A5
:1009C000E4CFD9FF1200D9CFE5FFE1CFD9FF00C0B6
:1009D000E5FF01C0E5FF02C0E5FF03C0E5FF04C07D
:1009E000E5FF05C0E5FF06C0E5FF07C0E5FF08C05D
:1009F000E5FF09C0E5FF0AC0E5FF0BC0E5FF0CC03D
:100A0000E5FF0DC0E5FF0EC0E5FF0FC0E5FF10C01C
:100A1000E5FF11C0E5FF12C0E5FF13C0E5FF14C0FC
:100A2000E5FF15C0E5FF16C0E5FF17C0E5FF18C0DC
:100A3000E5FF19C0E5FF1AC0E5FF1BC0E5FF1CC0BC
:100A4000E5FF1DC0E5FF1EC0E5FF020EDBCF00F095
:100A5000030EDBCF01F0040EDBCF02F0050EDBCF7F
:100A600003F0060EDBCF04F0070EDBCF05F0080E17
:100A7000DBCF06F0090EDBCF07F00A0EDBCF08F064
:100A8000096A0A6A02C00DF00D50800A0DE1025099
:100A90000601816F0150806F00507F6F060E016E5E
:100AA0007F0E006E800E026E03C0E9FF04C0F3FFEC
:100AB00005509DEC35F00B6E0B50D8B499EF08F053
:100AC0000B50250A02E080EF08F00C6A0D6A0E6AEE
:100AD0000F6A106A0A0E116E126A136A146A200EE7
:100AE000156E1668176A2B0E186E032A02E3044A65
:100AF000052A03C0E9FF04C0F3FF05509DEC35F063
:100B0000196E250A13E11950E56E0250E56E015089
:100B1000E56E0050E56EEFEC24F0040EE126094A84
:100B20000A2A032A02E3044A052ABED71950300ACA
:100B300006E1300E156E032A02E3044A052A03C0BB
:100B4000E9FF04C0F3FF05509DEC35F02D0A06E1E6
:100B5000010E146E032A02E3044A052A03C0E9FFCA
:100B600004C0F3FF05509DEC35F0200A08E1010EAA
:100B7000176E200E186E032A02E3044A052A03C0EA
:100B8000E9FF04C0F3FF05509DEC35F02B0A06E1A8
:100B9000010E176E032A02E3044A052A03C0E9FF87
:100BA00004C0F3FF05509DEC35F0196E310E195C51
:100BB0002BE33A0E195C28E203C019F004C01AF0C6
:100BC00005C01BF019C0E9FF1AC0F3FF1B509DECD4
:100BD00035F01C6E300E1C5C11E33A0E1C5C0EE20C
:100BE00013500A0DF3CF1DF01C501D26D00E1D24EE
:100BF000136E192A02E31A4A1B2AE4D719C003F01C
:100C00001AC004F01BC005F003C0E9FF04C0F3FFE5
:100C100005509DEC35F02E0A2DE1032A02E3044A2B
:100C2000052A166A03C019F004C01AF005C01BF0AB
:100C300019C0E9FF1AC0F3FF1B509DEC35F01C6E84
:100C4000300E1C5C11E33A0E1C5C0EE216500A0DCD
:100C5000F3CF1DF01C501D26D00E1D24166E192A30
:100C600002E31A4A1B2AE4D719C003F01AC004F0A1
:100C70001BC005F003C0E9FF04C0F3FF05509DEC65
:100C800035F0196E6C0A07E1010E0C6E032A02E3BF
:100C9000044A052A09D01950680A06E1010E0E6EB1
:100CA000032A02E3044A052A03C0E9FF04C0F3FF54
:100CB00005509DEC35F0750A06E1010E106E032A11
:100CC00002E3044A052A03C0E9FF04C0F3FF05500C
:100CD0009DEC35F0196E730A05E1010E0D6E200EC4
:100CE000156E3FD01950780A03E1100E116E39D0FD
:100CF0001950580A05E1100E116E010E126E31D016
:100D00001950630A02E1116A2CD019506F0A03E1ED
:100D1000080E116E26D01950660A03E1010E0F6EFF
:100D200020D01950640A1DE01950690A1AE01050C9
:100D300005E0FF0E03260422052213D01950E56EAC
:100D40000250E56E0150E56E0050E56EEFEC24F0C8
:100D5000040EE126094A0A2A032A02E3044A052A64
:100D6000A3D60D5021E00650030F0D6E000E072094
:100D7000196E000E08201A6E0DC006F019C007F09B
:100D80001AC008F0FD0E0D26FF0E19221A220DC002
:100D9000E9FF19C0F3FF1A5053EC34F00D6EF3CF96
:100DA00019F0F4CF1AF0FDD00F500DE0000E1A6EBE
:100DB000110E196EBA0E0D6E040E0626000E0722D5
:100DC00008221668EED016680C5023E00650040F77
:100DD0000C6E000E07200F6E000E08201B6E0CC05C
:100DE00006F00FC007F01BC008F0FC0E0C26FF0E2B
:100DF0000F221B220CC0E9FF0FC0F3FF1B509DEC1C
:100E000033F00C6EF3CF0FF0F4CF1BF0E9CF1CF0F2
:100E100067D00E502FE00650020F0E6E000E072016
:100E20001D6E000E08201E6E0EC006F01DC007F0DD
:100E30001EC008F0FE0E0E26FF0E1D221E220EC042
:100E4000E9FF1DC0F3FF1E5012EC35F00E6E0EC010
:100E50000CF00F6A1B6A1C6A11500A0A03E1105059
:100E6000D8B43ED00C500E6E0EC00CF00F6A1B6A48
:100E70001C6A36D00650020F0E6E000E07201D6E43
:100E8000000E08201E6E0EC006F01DC007F01EC02A
:100E900008F0FE0E0E26FF0E1D221E220EC0E9FFD8
:100EA0001DC0F3FF1E5012EC35F00E6EF3CF1DF097
:100EB0000EC00CF01DC00FF0E86A1DBEFF0E1B6EC9
:100EC0001C6E11500A0A02E110500AE00C500E6E1E
:100ED0000F501D6E0EC00CF01DC00FF01B6A1C6A77
:100EE000040E196E640E0D6E800E1A6E1150D8B479
:100EF00040D0105013E01150E56E040EE56E640E04
:100F0000E56E1C50E56E1B50E56E0F50E56E0C5003
:100F1000E56E1EEC1FF0070EE12612D01150E56EB3
:100F2000040EE56E640EE56E1C50E56E1B50E56E1A
:100F30000F50E56E0C50E56EA8EC2AF0070EE12686
:100F400017502FE00DC0E9FF19C0F3FF1A509DECB8
:100F500035F02D0A26E0FF0E0D2619221A2218C0A0
:100F6000E5FF0DC0E9FF19C0F3FF1A500AEC36F097
:100F700018D00CC0E5FF0DC0E9FF19C0F3FF1A50EF
:100F80000AEC36F00D50010F0C6E000E19200E6E9B
:100F9000000E1A20E56A0CC0E9FF0EC0F3FF0AEC50
:100FA00036F00DC00CF019C00EF01AC00FF013C0CF
:100FB00010F0105010E00CC0E9FF0EC0F3FF0F500E
:100FC0009DEC35F0176E175006E00C2A02E30E4A2E
:100FD0000F2A1006EED710C013F014501EE109C0FE
:100FE0000CF00AC00EF010C00FF00F5010E01550BA
:100FF000E56E0250E56E0150E56E0050E56EEFECD7
:1010000024F0040EE1260C4A0E2A0F06EED70CC07F
:1010100009F00EC00AF00FC013F016C00CF00DC09E
:101020000DF019C00EF01AC00FF009C010F00AC080
:1010300015F00DC0E9FF0EC0F3FF0F509DEC35F029
:10104000166E1650D8B43ED00CC016F0176A161E95
:10105000171E1650171005E00CC016F00C0616509F
:1010600031E00DC0E9FF0EC0F3FF0F509DEC35F0ED
:10107000116E125010E01150E56ECFEC34F0166E88
:10108000E652165004E0DF0E1114166E02D011C0A5
:1010900016F016C011F01150E56E0250E56E0150C9
:1010A000E56E0050E56EEFEC24F0040EE1260D2A0B
:1010B00002E30E4A0F2A104A152A1350D8B4B9D7A2
:1010C0001306B7D710C009F015C00AF014502BE072
:1010D00010C00CF015C00DF013C00EF00E501FE044
:1010E000200EE56E0250E56E0150E56E0050E56E93
:1010F000EFEC24F0040EE1260C4A0D2A0E06EED782
:101100000B50E56E0250E56E0150E56E0050E56E45
:10111000EFEC24F0040EE126094A0A2A04D00CC0A0
:1011200009F00DC00AF0032A02E3044A052A54EF2D
:1011300005F00AC0F3FF0950E4CF1EF0E4CF1DF024
:10114000E4CF1CF0E4CF1BF0E4CF1AF0E4CF19F0A9
:10115000E4CF18F0E4CF17F0E4CF16F0E4CF15F0A9
:10116000E4CF14F0E4CF13F0E4CF12F0E4CF11F0A9
:10117000E4CF10F0E4CF0FF0E4CF0EF0E4CF0DF0A9
:10118000E4CF0CF0E4CF0BF0E4CF0AF0E4CF09F0A9
:10119000E4CF08F0E4CF07F0E4CF06F0E4CF05F0A9
:1011A000E4CF04F0E4CF03F0E4CF02F0E4CF01F0A9
:1011B000E4CF00F0E4CFD9FF12003C4E4F20464C64
:1011C0004F41543E0000D9CFE5FFE1CFD9FF00C029
:1011D000E5FF01C0E5FF02C0E5FF03C0E5FF04C075
:1011E000E5FF05C0E5FF06C0E5FF07C0E5FF08C055
:1011F000E5FF09C0E5FF0AC0E5FF0BC0E5FF0CC035
:10120000E5FF0DC0E5FF020EDBCF00F0030EDBCFE4
:1012100001F0040EDBCF02F00050090F066E000E45
:101220000120076E000E0220086E0B6E07500A6E3A
:101230000650096EE56A0D0EE56E0B50E56E0A501C
:10124000E56E0950E56E800EE56E040EE56E490E02
:10125000E56E13EC27F0080EE12600C009F001C08E
:101260000AF002C00BF0E56AE56E0B50E56E0A501D
:10127000E56E0950E56E800EE56E040EE56E810E9A
:10128000E56E13EC27F0080EE12681C403F003504D
:10129000010A04E00350030A01E013D10401515193
:1012A00004015E5D06018C6F0401525104015F5917
:1012B00006018D6F04015E510401516F04015F51FD
:1012C0000401526F040160510401536F0401615124
:1012D0000401546F06018C518D11D8A47ED0ABEC63
:1012E00032F0036EF3CF04F0F4CF05F0E9CF09F04C
:1012F000040156510A6E57510B6E58510C6E5951DC
:101300000D6E0A50035E0B50045A0C50055A0D50D6
:10131000095A03500601596F04505A6F05505B6F0C
:101320007F0E09145C6F040155B125D006015A35B2
:101330005C31046E5B31036E043404320332000E00
:1013400004BEFF0E096E056E86C40AF00B6A0C6AB5
:101350000D6A0D50800FF36E0950800FF35C08E1A9
:1013600005500C5C05E104500B5C02E103500A5C83
:1013700002E204015581040155B149D04DC403F086
:101380004EC404F04FC405F050C409F006015C518E
:10139000800FF36E0950800FF35C08E105505B5D30
:1013A00005E104505A5D02E10350595D08E203C0B3
:1013B00059F604C05AF605C05BF609C05CF6040194
:1013C00062A304D0010E036E046A02D003680468AD
:1013D00003C08CF604C08DF61AD0040155915AC48E
:1013E00059F65BC45AF65CC45BF65DC45CF6060154
:1013F000595104014D6F06015A5104014E6F060107
:101400005B5104014F6F06015C510401506F0601EE
:101410005C51800F800F08E1000E5B5D05E1000E5E
:101420005A5D02E1010E595D06E206015D6B5E6BDD
:101430005F6B606B46D006015951036E5A51046EC2
:101440005B51056E5C51E56E0550E56E0450E56E2E
:101450000350E56E010EE56E000EE56AE56AE56A89
:10146000D2EC23F0036EF3CF04F0F4CF05F0E9CF14
:1014700009F0080EE1268CC60AF08DC60BF0E86A6A
:1014800006018DBFFF0E0C6E0D6E0950E56E055006
:10149000E56E0450E56E0350E56E0D50E56E0C50A0
:1014A000E56E0B50E56E0A50E56E14EC1EF0060179
:1014B0005D6FF3CF5EF6F4CF5FF6E9CF60F6080E0E
:1014C000E126020E0401815DD8A043D1040162A18E
:1014D00040D10050230F036E000E0120046E000E59
:1014E0000220E56E0450E56E0350E56E0EEC00F050
:1014F000030EE1260050230F036E000E0120046E40
:10150000000E0220056E020E0326000E04220522A4
:1015100003C0E9FF04C0F3FF05509DEC33F0036EF8
:10152000F3CF04F0F4CF05F0E9CF09F0F00E031685
:10153000033A043A0414041A03260550E838F00B61
:101540000412F00E0516053A093A0914091A05267F
:10155000F00E09B6092604015E51035C0601616FB5
:1015600004015F5104580601626F0401605105587F
:101570000601636F0401615109580601646FD88048
:1015800064AFD89022E30401831D046E821D036EB4
:10159000034A042AE86A04BEFF0E056E096E0601BE
:1015A0006451800FF36E0950800FF35C08E1055021
:1015B000635D05E10450625D02E10350615D05E396
:1015C0000601616B626B636B646B06016451800F93
:1015D000800F08E1000E635D05E1000E625D02E12F
:1015E000010E615D1EE382C403F083C404F0E86A67
:1015F000040183BFFF0E056E800FF36E0601645178
:10160000800FF35C08E16351055C05E16251045C05
:1016100002E16151035C05E30601616B626B636B80
:10162000646B0401875109E0E86CD89006016137CA
:10163000623763376437010FF9E306016451800FA5
:10164000800F08E1000E635D05E1800E625D02E13E
:10165000000E615D07E3060161697F0E626F636BD7
:10166000646B14D006016451800F810F08E1FF0EF6
:10167000635D05E1800E625D02E1000E615D06E2E0
:101680000601616B800E626F636964690050330FFD
:10169000036E000E0120046E000E0220056E06018E
:1016A0006151096E6251E56E0950E56E0550E56EB7
:1016B0000450E56E0350E56E1EEC0FF0050EE126BA
:1016C00004018151030A23E10050330F036E000E21
:1016D0000120046E000E0220056E0B0E0326000E84
:1016E0000422052203C0E9FF04C0F3FF05509DEC6E
:1016F00033F0F3CF04F0F4CF05F00450036E05503F
:10170000046E03500401496F04504A6F22D0005008
:10171000330F036E000E0120046E000E0220056ED2
:101720000B0E0326000E0422052203C0E9FF04C0AD
:10173000F3FF05509DEC33F0F3CF04F0F4CF05F048
:101740000450036E0550046E035004014B6F0450A7
:101750004C6F81C403F00350010A04E00350030AF4
:1017600001E07DD049C403F04AC404F0E86A0401F2
:101770004ABFFF0E056E096E06015D51035C06014E
:10178000616F06015E5104580601626F06015F51E8
:1017900005580601636F0601605109580601646F20
:1017A000800F800F08E1000E635D05E1800E625D31
:1017B00002E1000E615D07E3060161697F0E626F61
:1017C000636B646B14D006016451800F810F08E1D4
:1017D000FF0E635D05E1800E625D02E1000E615D5A
:1017E00006E20601616B800E626F636964690050F6
:1017F000440F036E000E0120046E000E0220056EE1
:1018000006016151096E6251E56E0950E56E0550A1
:10181000E56E0450E56E0350E56E1EEC0FF0050E0C
:10182000E126440E0026000E012202220B0E0026A5
:10183000000E0122022200C0E9FF01C0F3FF0250A6
:101840009DEC33F0F3CF01F0F4CF02F00150006EC5
:101850000250016E005004014B6F01504C6F085054
:10186000086EE56A0D0EE56E800EE56E040EE56EFF
:10187000490EE56E0850E56E0750E56E0650E56EC0
:1018800013EC27F0080EE126E4CF0DF0E4CF0CF0C6
:10189000E4CF0BF0E4CF0AF0E4CF09F0E4CF08F096
:1018A000E4CF07F0E4CF06F0E4CF05F0E4CF04F096
:1018B000E4CF03F0E4CF02F0E4CF01F0E4CF00F096
:1018C000E4CFD9FF120025642025640A000000C07F
:1018D000E5FF01C0E5FF02C0E5FF03C0E5FF04C06E
:1018E000E5FF05C0E5FF06C0E5FF07C0E5FF42ECE8
:1018F00023F0C9EC20F0E0EC15F0ABEC32F0006E18
:10190000F3CF01F0F4CF02F0E9CF03F004018E51E0
:10191000005E8F51015A9051025A9151035A039E11
:101920003F0E035C08E1FF0E025C05E1FF0E015C67
:1019300002E1FF0E005CD8B00DEF0FF0ABEC32F01F
:10194000F3CF01F0F4CF02F0E9CF03F0880F0401E8
:101950008E6F130E01208F6F000E0220906F000E0D
:101960000320916F02EC1DF0010E0401265D02E1DF
:10197000900E255D04E20401253F01D0262BE0EC0A
:1019800015F042EC23F0006A81B0002A005002E119
:101990008B8C01D08B9C006A81B2002A005002E13E
:1019A0008A8401D08A9408C0E5FFF2CF08F0F29E45
:1019B0000401A9510401566F0401AA510401576F93
:1019C0000401AB510401586F0401AC510401596F7B
:1019D0000401AD5104015A6F0401AE5104015B6F63
:1019E0000401AF5104015C6F0401B05104015D6F4B
:1019F0000401B15104015E6F0401B25104015F6F33
:101A00000401B3510401606F0401B4510401616F1A
:101A10000401B5510401626F0401AD6BAE6BAF6B95
:101A2000B06B08BEF28EE4CF08F0800EE56E040EB7
:101A3000E56E930EE56EE3EC08F0030EE1269EC41E
:101A40008EF69FC48FF606018F51800F7C0F02E146
:101A5000000E8E5D04E306018E69030E8F6F060192
:101A60008F51800F840F02E1010E8E5D05E2010EA1
:101A700006018E6FFC0E8F6F06018F51800F800F55
:101A800002E1010E8E5D10E306018F51800FF36EAF
:101A900004019751800FF35C03E1965106018E5DBE
:101AA00003E206018E6B8F6BD88006018FAFD89052
:101AB00015E30401971D016E961D006E004A012A70
:101AC0000150800FF36E06018F51800FF35C02E12D
:101AD0008E51005C03E206018E6B8F6B04019AA3AA
:101AE00009D0B5A507D0D88006018FAFD89002E302
:101AF0008E6B8F6BD88006018FAFD89007E38E5125
:101B0000FF0F006E030E8F21016E04D08EC600F011
:101B10008FC601F000C090F601C091F6BD9A060193
:101B20009051010BE838F46EBD50EF0BF410BD6E10
:101B300091359131016E9031006E013401320032E5
:101B40000050BE6ED88006018FAFD89002E3898C1A
:101B500001D0899C08C0E5FFF2CF08F0F29E060193
:101B600016510401566F060117510401576F060103
:101B700018510401586F060119510401596F0601EB
:101B80001A5104015A6F06011B5104015B6F0601D3
:101B90001C5104015C6F06011D5104015D6F0601BB
:101BA0001E5104015E6F06011F5104015F6F0601A3
:101BB00020510401606F060121510401616F06018B
:101BC00022510401626F06011A6B1B6B1C6B1D6BAB
:101BD00008BEF28EE4CF08F0800EE56E060EE56ECC
:101BE000000EE56EE3EC08F0030EE1260BC68EF660
:101BF0000CC68FF606018F51800F7C0F02E1000E9C
:101C00008E5D04E306018E69030E8F6F06018F510E
:101C1000800F840F02E1010E8E5D05E2010E0601C8
:101C20008E6FFC0E8F6F06018F51800F800F02E1C7
:101C3000010E8E5D10E306018F51800FF36E0601D9
:101C40000451800FF35C03E1035106018E5D03E252
:101C500006018E6B8F6BD88006018FAFD89015E38D
:101C60000601041D016E031D006E004A012A015089
:101C7000800FF36E06018F51800FF35C02E18E51ED
:101C8000005C03E206018E6B8F6B060107A309D08F
:101C900022A507D0D88006018FAFD89002E38E6BC3
:101CA0008F6BD88006018FAFD89007E38E51FF0F5E
:101CB000006E030E8F21016E04D08EC600F08FC619
:101CC00001F000C090F601C091F6669A06019051AD
:101CD000010BE838F46E6650EF0BF410666E913528
:101CE0009131016E9031006E0134013200320050AA
:101CF000676ED88006018FAFD89002E3898E01D03D
:101D0000899E42EC23F00401242B24510401235D1D
:101D1000D8B083D00401246B04012851D8A445D045
:101D2000060125352635006E016A01362751E84443
:101D3000FE0B011227352835026E036AD8B0030660
:101D40000401B835B935046E056A0536BA51E84460
:101D5000FE0B0512BA35BB35066E076AD8B007060A
:101D60000350E56E0250E56E0150E56E0050E56EE1
:101D700006010C51E56E0B51E56E0750E56E0650FD
:101D8000E56E0550E56E0450E56E04019F51E56E69
:101D90009E51E56E000EE56E320EE56E220EE56E8A
:101DA00074EC30F00F0EE12630D004012851010A06
:101DB0002CE1006A060122B5002A016A026A0401C8
:101DC000B5B5022A0150E56E0050E56E06012151BD
:101DD000E56E2051E56E1F51E56E1E51E56EE56A18
:101DE0000250E56E0401B451E56EB351E56EB25197
:101DF000E56EB151E56E000EE56E320EE56E340E05
:101E0000E56E74EC30F00F0EE12628C400F00401FA
:101E1000282B030E005CD8B0286BE4CF07F0E4CF8A
:101E200006F0E4CF05F0E4CF04F0E4CF03F0E4CF14
:101E300002F0E4CF01F0E4CF00F01200D9CFE5FFCB
:101E4000E1CFD9FF00C0E5FF01C0E5FF02C0E5FF1B
:101E500003C0E5FF04C0E5FF05C0E5FF06C0E5FFE0
:101E600007C0E5FF08C0E5FF09C0E5FF0AC0E5FFC0
:101E70000BC0E5FF0CC0E5FF0DC0E5FF0EC0E5FFA0
:101E8000020EDBCF00F0030EDBCF01F0040EDBCF40
:101E900002F0050EDBCF03F0060EDBCF04F002509C
:101EA0000A6E0150096E0050086EE56A110EE56E6B
:101EB0000A50E56E0950E56E0850E56E800EE56E3D
:101EC0000F0EE56E230EE56E13EC27F0080EE126EB
:101ED00032CF05F033CF06F0E86A0F0133BFFF0EB3
:101EE000076E0401776F0650766F0550756F746B3F
:101EF00003C005F004C006F0E86A04BEFF0E076EDA
:101F0000086E23CF09F0E56AE56AE56A0950E56ED7
:101F10000850E56E0750E56E0650E56E0550E56E1B
:101F200014EC1EF00401706FF3CF71F4F4CF72F46F
:101F3000E9CF73F4080EE1260F012451D8B4E3D0A1
:101F40000450800F800F02E1010E035C25E30F01B6
:101F50002951800F7C0F08E1000E285D05E1000E7D
:101F6000275D02E1000E265D17E20F013151800F5F
:101F7000F36E04017751800FF35C0DE176510F0190
:101F8000305D09E1040175510F012F5D04E1040189
:101F900074510F012E5D33E3D88004AED890D8A0E1
:101FA00043D00F012951800F840F08E1000E285DF6
:101FB00005E1000E275D02E1010E265D35E3040117
:101FC000771D0C6E761D0B6E751D0A6E741D096EE5
:101FD000092A04E10A2A02E10B4A0C2A0C50800F5C
:101FE000F36E0F013151800FF35C08E130510B5C4F
:101FF00005E12F510A5C02E12E51095C15E2055002
:102000000F012625096E065027210A6E0750282148
:102010000B6E085029210C6E0950266F0A50276F4D
:102020000B50286F0C50296F0350041031E126CF5C
:1020300003F027CF04F028CF09F029CF0AF0E56A92
:10204000E56AE56A100EE56E0A50E56E0950E56E28
:102050000450E56E0350E56EFAEC1FF00B6EF3CF03
:102060000CF0F4CF0DF0E9CF0EF0080EE1260B5086
:10207000035E0C50045A0D50095A0E500A5A035070
:102080000F01266F0450276F0950286F0A50296FDF
:102090000F0126390F0B036E2739046EF00B041A5B
:1020A00003262851E838F00B041228390F0B096E6B
:1020B00029390A6EF00B0A1A0926F00E0AB60A260A
:1020C00024CF0BF0E56AE56AE56A0B50E56E0A502D
:1020D000E56E0950E56E0450E56E0350E56E14ECB4
:1020E0001EF0036EF3CF04F0F4CF09F0E9CF0AF04D
:1020F000080EE12603500401702704507123095093
:1021000072230A5073230F012551D8B465D02A5188
:10211000055C0401786F0F012B5106580401796F9B
:102120000F012C51075804017A6F0F012D510858E7
:1021300004017B6F800F800F08E1010E7A5D05E1DD
:10214000000E795D02E1000E785D06E30401786916
:1021500079697A6B7B6B13D004017B51800F810FFF
:1021600008E1FF0E7A5D05E1000E795D02E1000EE7
:10217000785D05E20401786B796B7A697B6904010B
:1021800078517825036E7935046E7A35096E7B3582
:102190000A6E25CF0BF0E56AE56AE56A0B50E56E3D
:1021A0000A50E56E0950E56E0450E56E0350E56E89
:1021B00014EC1EF0036EF3CF04F0F4CF09F0E9CF76
:1021C0000AF0080EE1260350040170270450712321
:1021D000095072230A50732305500F012A6F0650CD
:1021E0002B6F07502C6F08502D6F04017751800F13
:1021F000F36E04017351800FF35C0DE17251040121
:10220000765D09E1040171510401755D04E1040189
:1022100070510401745D11E2040174510F012E6FBD
:10222000040175510F012F6F040176510F01306FBA
:10223000040177510F01316F3AD00401771D066E0A
:10224000761D056E751D046E741D036E032A04E170
:10225000042A02E1054A062A04017351800FF36E35
:102260000650800FF35C08E10550725D05E10450F3
:10227000715D02E10350705D0AE203500F012E6FA1
:1022800004502F6F0550306F0650316F10D004018D
:1022900070510F012E6F040171510F012F6F040156
:1022A00072510F01306F040173510F01316FE56AF4
:1022B000110EE56E800EE56E0F0EE56E230EE56ED7
:1022C0000250E56E0150E56E0050E56E13EC27F00C
:1022D000080EE126E4CF0EF0E4CF0DF0E4CF0CF0D1
:1022E000E4CF0BF0E4CF0AF0E4CF09F0E4CF08F03C
:1022F000E4CF07F0E4CF06F0E4CF05F0E4CF04F03C
:10230000E4CF03F0E4CF02F0E4CF01F0E4CF00F03B
:10231000E4CFD9FF1200D9CFE5FFE1CFD9FF00C04C
:10232000E5FF01C0E5FF02C0E5FF03C0E5FF04C013
:10233000E5FF05C0E5FF06C0E5FF07C0E5FF08C0F3
:10234000E5FF09C0E5FF0AC0E5FF020EDBCF00F0A4
:10235000030EDBCF01F0040EDBCF02F0036A046A48
:10236000FFEC32F0056EFE0A01E075D0D1EC2DF0E5
:10237000FFEC32F0066E030E065CD8A05AD0060EB3
:10238000065CD8B056D0FD0E0624076EFA6AFB6ACA
:102390000734FA36E834FA36FC0BAA0FE56E230E42
:1023A000FA22000EFB22E450F96EDBEF11F0EDEFA4
:1023B00011F006EF12F00050090F076E000E012019
:1023C000086E000E022007C0E9FF08C0F3FF12EC00
:1023D00035F0036EF3CF04F02CD00050090F076ED8
:1023E000000E0120086E000E0220096E020E072664
:1023F000000E0822092207C0E9FF08C0F3FF0950B8
:1024000012EC35F0036EF3CF04F013D00050070F39
:10241000076E000E0120086E000E022007C0E9FFC3
:1024200008C0F3FF9DEC35F0010B076E07C003F009
:10243000046A0450E56E0350E56EE56A0650E56EE9
:10244000000EE56E180EE56EC60EE56E74EC30F00B
:10245000070EE12686D1080E055CD8B082D1FA6A53
:10246000FB6A0534FA36E834FA36FC0B7C0FE56E6D
:10247000240EFA22000EFB22E450F96E4EEF12F009
:1024800069EF12F07BEF12F08DEF12F0B5EF12F062
:10249000E1EF12F000EF13F05DEF13F00050230FA7
:1024A000036E000E0120046E000E0220E56E045043
:1024B000E56E0350E56E26EC19F0030EE126020EE0
:1024C000E56E00C0E9FF01C0F3FF02500AEC36F0F0
:1024D00048D10050330F036E000E0120046E000E31
:1024E0000220E56E0450E56E0350E56EADEC1AF087
:1024F000030EE12636D10050440F036E000E01207A
:10250000046E000E0220E56E0450E56E0350E56E89
:10251000ADEC1AF0030EE12624D10050090F036E32
:10252000000E0120046E000E0220056EFFEC32F05A
:10253000066A076EFFEC32F0096A06260950072288
:1025400006C0E5FF07C0F4FF03C0E9FF04C0F3FFC6
:102550000550E7EC35F0010EE56E00C0E9FF01C063
:10256000F3FF02500AEC36F0FCD00050090F036E66
:10257000000E0120046E000E0220056E020E0326DE
:10258000000E04220522FFEC32F0066A076EFFEC13
:1025900032F0096A06260950072206C0E5FF07C087
:1025A000F4FF03C0E9FF04C0F3FF0550E7EC35F08A
:1025B000E56A00C0E9FF01C0F3FF02500AEC36F003
:1025C000D0D00050070F036E000E0120046E000EE5
:1025D0000220056EFFEC32F0010BF46E03C0E9FF40
:1025E00004C0F3FF05509DEC35F0FE0BF410E56ED2
:1025F00003C0E9FF04C0F3FF05500AEC36F0B1D088
:10260000FFEC32F0036E0050160F046E000E012036
:10261000056E000E0220066E04500C0F076E000EB1
:102620000520086E000E0620096E0350D880E8666B
:10263000D8900A6A0A360A50D880E866D8900A6AA2
:102640000A360A50010BF46E07C0E9FF08C0F3FF19
:1026500009509DEC35F0FE0BF410E56E07C0E9FF64
:1026600008C0F3FF09500AEC36F00350010A01E0FC
:1026700078D0080E0426000E05220622E56AF46AC8
:10268000F66AF76A04C0E9FF05C0F3FF06508CEC58
:1026900035F00050230F036E000E0120046E000E73
:1026A0000220E56AE56AE56E0450E56E0350E56ECA
:1026B000AEEC22F0050EE12654D0FFEC32F0036AB6
:1026C000046EFFEC32F0066A032606500422005026
:1026D000160F056E000E0120066E000E0220076E1A
:1026E00005500C0F086E000E0620096E000E072024
:1026F0000A6E08C0E9FF09C0F3FF9DEC35F0E880E1
:10270000E56E08C0E9FF09C0F3FF0A500AEC36F095
:10271000080E0526000E0622072203C008F004C09A
:1027200009F008C0E5FF09C0F4FFF66AF76A05C0C2
:10273000E9FF06C0F3FF07508CEC35F0230E0026AE
:10274000000E012202220450E56E0350E56E025095
:10275000E56E0150E56E0050E56E8EEC28F0050E3A
:10276000E126E4CF0AF0E4CF09F0E4CF08F0E4CFAB
:1027700007F0E4CF06F0E4CF05F0E4CF04F0E4CFB7
:1027800003F0E4CF02F0E4CF01F0E4CF00F0E4CFB7
:10279000D9FF120000C0E5FF01C0E5FF02C0E5FF60
:1027A00003C0E5FF05C0E5FF4BEC36F0A7EC2FF0CA
:1027B000330ECD6E9D809F808A98899C8B84040106
:1027C00089859398929C9494040192959380810EAC
:1027D000006E0F0E016E0F0E036E380E00260350B2
:1027E00001220F0E036E800E005E0350015A810E0F
:1027F000026E0F0E036E0F0E056E380E0226055088
:1028000003220F0E056E800E025E0550035A02C0B1
:10281000E9FF03C0EAFFEFCF02F0029000C0E9FF3A
:1028200001C0EAFF02C0EFFF9482820E006E0F0E1D
:10283000016E0F0E036E380E0026035001220F0E9C
:10284000036E800E005E0350015A820E026E0F0E60
:10285000036E0F0E056E380E0226055003220F0E72
:10286000056E800E025E0550035A02C0E9FF03C0E8
:10287000EAFFEFCF02F0029200C0E9FF01C0EAFFD9
:1028800002C0EFFF9486820E006E0F0E016E0F0ED7
:10289000036E380E0026035001220F0E036E800EC9
:1028A000005E0350015A820E026E0F0E036E0F0E71
:1028B000056E380E0226055003220F0E056E800E9F
:1028C000025E0550035A02C0E9FF03C0EAFFEFCFE2
:1028D00002F0029600C0E9FF01C0EAFF02C0EFFF6C
:1028E0000C0EBD6EBD9ABD98BE6AB96AB986040168
:1028F000936B020E946F956B0A0E966F976B100E8A
:10290000986F070E996F9A919A83800EE56E040E68
:10291000E56EB60EE56E2CEC2DF0030EE126800E72
:10292000E56E040EE56ED70EE56E1AEC22F0030E8E
:10293000E126800EE56E040EE56EC60EE56E1AEC1D
:1029400022F0030EE1260401B16BB26BB36BB46BE2
:10295000B591B5959C6B9D6B9E6B9F6BA46BA56BA6
:10296000A66BA76B8A96899E8B80040189859396B6
:10297000929E9490040192959382810E006E0F0EA8
:10298000016E0F0E036E380E0026035001220F0E4B
:10299000036E800E005E0350015A810E026E0F0E10
:1029A000036E0F0E056E380E0226055003220F0E21
:1029B000056E800E025E0550035A02C0E9FF03C097
:1029C000EAFFEFCF02F0029200C0E9FF01C0EAFF88
:1029D00002C0EFFF9488820E006E0F0E016E0F0E84
:1029E000036E380E0026035001220F0E036E800E78
:1029F000005E0350015A820E026E0F0E036E0F0E20
:102A0000056E380E0226055003220F0E056E800E4D
:102A1000025E0550035A02C0E9FF03C0EAFFEFCF90
:102A200002F0029800C0E9FF01C0EAFF02C0EFFF18
:102A3000948A820E006E0F0E016E0F0E036E380E1A
:102A40000026035001220F0E036E800E005E03501D
:102A5000015A820E026E0F0E036E0F0E056E380EB7
:102A60000226055003220F0E056E800E025E0550F1
:102A7000035A02C0E9FF03C0EAFFEFCF02F0029A57
:102A800000C0E9FF01C0EAFF02C0EFFF0C0E666E56
:102A9000669A6698676A0601006B020E016F026B08
:102AA0000A0E036F046B100E056F070E066F079179
:102AB0000783800EE56E060EE56E230EE56E2CECA8
:102AC0002DF0030EE126800EE56E060EE56E440E37
:102AD000E56E1AEC22F0030EE126800EE56E060E7E
:102AE000E56E330EE56E1AEC22F0030EE1260601C8
:102AF0001E6B1F6B206B216B22912295096B0A6B59
:102B00000B6B0C6B116B126B136B146B04019A83C0
:102B1000040E996F06010783066F949C9394928428
:102B2000800E006E0F0E016E0F0E036E380E002623
:102B300003500122800E026E0F0E036E800E005EA7
:102B40000350015A0F0E056E380E0226055003225F
:102B50000F0E056E800E025E0550035A02C0E9FF9B
:102B600003C0EAFFEFCF02F0029400C0E9FF01C00A
:102B7000EAFF02C0EFFFA7EC2FF016EC28F029ECDB
:102B800036F0ABEC32F0F3CF01F0F4CF02F0E9CF46
:102B900003F0880F04018E6F130E01208F6F000E5B
:102BA0000220906F000E0320916FE4CF05F0E4CF78
:102BB00003F0E4CF02F0E4CF01F0E4CF00F0120024
:102BC00000C0E5FF01C0E5FF02C0E5FF03C0E5FF6F
:102BD00004C0E5FF05C0E5FF06C0E5FF006A80B45C
:102BE000002A04012751001828E0006A80B4002A56
:102BF00000C027F40401275120E10401936B9E6B70
:102C00009F6BE56AE56A800EE56E040EE56EB60E12
:102C1000E56EAEEC22F0050EE1260601006B0B6BB3
:102C20000C6BE56AE56A800EE56E060EE56E230E16
:102C3000E56EAEEC22F0050EE1260401275101E11C
:102C40006CD106018751E56E8651E56E5BEC2FF085
:102C5000006EE652E65200C082F60601836B825196
:102C6000831103E1FE0E826F836906018651010F15
:102C7000006E000E8721E56E0050E56E5BEC2FF0D4
:102C80000401376FE652E65206018651020F006ECC
:102C9000000E8721E56E0050E56E5BEC2FF0006EB4
:102CA000E652E65200C084F60601856B8451851118
:102CB00003E1F60E846F856906018651030F006EED
:102CC000000E8721E56E0050E56E5BEC2FF00601EB
:102CD000986FE652E6520401B5B112D0936BA20E82
:102CE0009E6FFE0E9F6FE56AE56A800EE56E040E2C
:102CF000E56EB60EE56EAEEC22F0050EE1267CD058
:102D0000040E016EB60E006E800E026E82C603F0D7
:102D100083C604F0E86A060183BFFF0E056EE56E08
:102D20000550E56E0450E56E0350E56EE56AE56A10
:102D30002A0EE56E940EE56E14EC1EF0036EF3CFD2
:102D400004F0F4CF05F0E9CF06F0080EE126E56ABD
:102D5000E56A010EE56EE56A0650E56E0550E56E22
:102D60000450E56E0350E56EFAEC1FF0036EF3CFEE
:102D700004F0080EE1260450E56E0350E56E0250A3
:102D8000E56E0150E56E0050E56EE1EC31F0050EA8
:102D9000E12637C400F0E56AE56AE56A0050E56EB1
:102DA000E56AE56A010EE56E5E0EE56E14EC1EF056
:102DB000006EF3CF01F0F4CF02F0E9CF03F0080E7C
:102DC000E126E56AE56A010EE56EE56A0350E56E07
:102DD0000250E56E0150E56E0050E56EFAEC1FF012
:102DE000006EF3CF01F0080EE12600500401BC6F25
:102DF0000150BD6F020E936F060122B112D0006B1D
:102E0000A20E0B6FFE0E0C6FE56AE56A800EE56E92
:102E1000060EE56E230EE56EAEEC22F0050EE12601
:102E20007CD0060E016E230E006E800E026E84C6EC
:102E300003F085C604F0E86A060185BFFF0E056E43
:102E4000E56E0550E56E0450E56E0350E56EE56AEB
:102E5000E56A1E0EE56EDC0EE56E14EC1EF0036EE8
:102E6000F3CF04F0F4CF05F0E9CF06F0080EE12629
:102E7000E56AE56A010EE56EE56A0650E56E055005
:102E8000E56E0450E56E0350E56EFAEC1FF0036E3C
:102E9000F3CF04F0080EE1260450E56E0350E56E12
:102EA0000250E56E0150E56E0050E56EE1EC31F048
:102EB000050EE12698C600F0E56AE56AE56A00506D
:102EC000E56EE56AE56A010EE56E8B0EE56E14ECC3
:102ED0001EF0006EF3CF01F0F4CF02F0E9CF03F063
:102EE000080EE126E56AE56A010EE56EE56A035023
:102EF000E56E0250E56E0150E56E0050E56EFAECAD
:102F00001FF0006EF3CF01F0080EE126005006011D
:102F1000296F01502A6F020E006FE4CF06F0E4CF54
:102F200005F0E4CF04F0E4CF03F0E4CF02F0E4CF07
:102F300001F0E4CF00F0120000C0E5FF01C0E5FFA2
:102F400002C0E5FF03C0E5FF9EA062D1006A82B225
:102F5000002A0050010BF46E04019B51FE0BF4108B
:102F60009B6F81B007D0B16BB26BB36BB46BB581A3
:102F7000B58502D00401B595006A04019BB1002A11
:102F8000016A9BB5012A0050011801E18ED0006A48
:102F900004019BB1002A0050010BE844E844F46EA0
:102FA0009B51FB0BF4109B6FA951AD5D006EAA51B4
:102FB000AE59016EAB51AF59026EAC51B059036EB0
:102FC0000050AD6F0150AE6F0250AF6F0350B06F45
:102FD0000401F8510401A96F0401F9510401AA6F19
:102FE0000401FA510401AB6F0401FB510401AC6F01
:102FF0000401F8510026F9510122FA510222FB5135
:10300000032200500401AD6F0150AE6F0250AF6F4C
:103010000350B06F006A82B6002A0050010BE844EA
:10302000F46E9B51FD0BF4109B6F006A9BB1002A5C
:10303000016A9BB3012A0150D880E866D890016AE2
:1030400001360150001A005019E0B1C400F0B2C4BA
:1030500001F0B3C402F0B4C403F0002A04E3012A6F
:1030600002E3024A032A00500401B16F0150B26F1B
:103070000250B36F0350B46FB58317D0B1C400F0E2
:10308000B2C401F0B3C402F0B4C403F0FF0E0026D2
:1030900001220222032200500401B16F0150B26FDD
:1030A0000250B36F0350B46FB593006A82B8002A20
:1030B0000050010BF46E06010851FE0BF410086F6E
:1030C00081B207D01E6B1F6B206B216B2281228582
:1030D00002D006012295006A060108B1002A016AA1
:1030E00008B5012A0050011801E18ED0006A0601DE
:1030F00008B1002A0050010BE844E844F46E08517E
:10310000FB0BF410086F16511A5D006E17511B5916
:10311000016E18511C59026E19511D59036E005051
:103120001A6F01501B6F02501C6F03501D6F04017A
:10313000F8510601166F0401F9510601176F0401D9
:10314000FA510601186F0401FB510601196F0401C1
:10315000F8510026F9510122FA510222FB510322B3
:10316000005006011A6F01501B6F02501C6F035074
:103170001D6F006A82BA002A0050010BE844F46E09
:103180000851FD0BF410086F006A08B1002A016AAB
:1031900008B3012A0150D880E866D890016A013648
:1031A0000150001A005019E01EC600F01FC601F0C1
:1031B00020C602F021C603F0002A04E3012A02E33C
:1031C000024A032A005006011E6F01501F6F025071
:1031D000206F0350216F228317D01EC600F01FC638
:1031E00001F020C602F021C603F0FF0E00260122E6
:1031F00002220322005006011E6F01501F6F025071
:10320000206F0350216F2293CF68EB0ECE6E9E90FD
:10321000E4CF03F0E4CF02F0E4CF01F0E4CF00F01C
:103220001200434D20256420256C64202564202550
:103230006C640A00436D20256C6420256420256C95
:10324000642025640A00430025630000D9CFE5FF10
:10325000E1CFD9FF00C0E5FF01C0E5FF02C0E5FFF7
:1032600003C0E5FF04C0E5FF05C0E5FF06C0E5FFBC
:1032700007C0E5FF08C0E5FF09C0E5FF020EDBCF90
:1032800000F0030EDBCF01F0040EDBCF02F0036A87
:10329000046AFFEC32F0056EFE0A01E08AD0D1EC40
:1032A0002DF0FFEC32F0066E06500EE00650010ADB
:1032B0001DE00650020A2CE006500A0A3BE00650C8
:1032C0000B0A01E142D063D00050060F076E000EDA
:1032D0000120086E000E022007C0E9FF08C0F3FFBE
:1032E00012EC35F0036EF3CF04F051D000500C0F08
:1032F000076E000E0120086E000E022007C0E9FFD5
:1033000008C0F3FF12EC35F0036EF3CF04F03FD0AA
:1033100000500E0F076E000E0120086E000E0220F6
:1033200007C0E9FF08C0F3FF12EC35F0036EF3CFDE
:1033300004F02DD000C0E9FF01C0F3FF025012ECF1
:1033400035F0036EF3CF04F022D00050020F076E69
:10335000000E0120086E000E0220096E07C0E9FF72
:1033600008C0F3FF09509DEC33F0076EF3CF08F06F
:10337000F4CF09F007340834076E086A083609509C
:10338000E844FE0B08120750036E0850046E045008
:10339000E56E0350E56EE56A0650E56E000EE56EDB
:1033A0005A0EE56EF60EE56E74EC30F0070EE1266F
:1033B000BDD0055014E00550010A30E00550020A66
:1033C00001E14BD005500A0A01E166D005500B0A15
:1033D00001E17BD005500C0A01E190D0A7D000504C
:1033E000060F036E000E0120046E000E0220056E13
:1033F000FFEC32F0066A076EFFEC32F0096A06262F
:103400000950072206C0E5FF07C0F4FF03C0E9FF2B
:1034100004C0F3FF0550E7EC35F088D000500C0FE6
:10342000036E000E0120046E000E0220056EFFECFC
:1034300032F0066A076EFFEC32F0096A0626095080
:10344000072206C0E5FF07C0F4FF03C0E9FF04C080
:10345000F3FF0550E7EC35F069D000500E0F036E16
:10346000000E0120046E000E0220056EFFEC32F00B
:10347000066A076EFFEC32F0096A06260950072239
:1034800006C0E5FF07C0F4FF03C0E9FF04C0F3FF77
:103490000550E7EC35F04AD0FFEC32F0036A046ED9
:1034A000FFEC32F0066A0326065004220450E56E53
:1034B0000350E56E0250E56E0150E56E0050E56E7A
:1034C000E1EC31F0050EE12631D0FFEC32F0036A79
:1034D000046EFFEC32F0066A032606500422045004
:1034E000E56E0350E56E0250E56E0150E56E00504A
:1034F000E56EAEEC22F0050EE12618D0FFEC32F0BE
:10350000036A046EFFEC32F0066A032606500422BA
:103510000450E56E0350E56E0250E56E0150E56E15
:103520000050E56E8EEC28F0050EE126E4CF09F0A0
:10353000E4CF08F0E4CF07F0E4CF06F0E4CF05F0E5
:10354000E4CF04F0E4CF03F0E4CF02F0E4CF01F0E5
:10355000E4CF00F0E4CFD9FF1200D9CFE5FFE1CFEF
:10356000D9FF00C0E5FF01C0E5FF02C0E5FF03C0D1
:10357000E5FF04C0E5FF05C0E5FF06C0E5FF07C0A5
:10358000E5FF08C0E5FF020EDBCF00F0030EDBCF46
:1035900001F0040EDBCF02F0036A046AFFEC32F0A4
:1035A000056EFE0A01E075D0D1EC2DF0FFEC32F093
:1035B000066E040E065CD8B05AD0FA6AFB6A06346E
:1035C000FA36E834FA36FC0BD80FE56E350EFA22DF
:1035D000000EFB22E450F96EF4EF1AF000EF1BF03E
:1035E00013EF1BF026EF1BF000C0E9FF01C0F3FF53
:1035F00002509DEC35F0076E07C003F0046A37D027
:103600000050010F076E000E0120086E000E022010
:1036100007C0E9FF08C0F3FF9DEC35F0076E07C057
:1036200003F0046A24D00050020F076E000E012040
:10363000086E000E022007C0E9FF08C0F3FF9DECF2
:1036400035F0076E07C003F0046A11D000500F0F69
:10365000076E000E0120086E000E022007C0E9FF71
:1036600008C0F3FF12EC35F0036EF3CF04F0045002
:10367000E56E0350E56EE56A0650E56E000EE56EF8
:10368000450EE56E540EE56E74EC30F0070EE12643
:1036900083D0040E055CD8B07FD0FA6AFB6A05348B
:1036A000FA36E834FA36FC0BB80FE56E360EFA221D
:1036B000000EFB22E450F96E64EF1BF071EF1BF07B
:1036C0009CEF1BF0B2EF1BF0FFEC32F0036E03C077
:1036D000E5FF00C0E9FF01C0F3FF02500AEC36F03D
:1036E0005BD00050010F036E000E0120046E000E2F
:1036F0000220056EFFEC32F0066E06C0E5FF03C047
:10370000E9FF04C0F3FF05500AEC36F00650D8A4D8
:1037100043D00050030F036E000E0120046E000E14
:103720000220E56AF46AF66AF76A03C0E9FF04C09A
:10373000F3FF8CEC35F030D00050020F036E000E1A
:103740000120046E000E0220056EFFEC32F0066EC2
:1037500006C0E5FF03C0E9FF04C0F3FF05500AEC13
:1037600036F01AD00F0E0026000E01220222FFECC6
:1037700032F0036A046EFFEC32F0066A032606504C
:10378000042203C0E5FF04C0F4FF00C0E9FF01C04C
:10379000F3FF0250E7EC35F0E4CF08F0E4CF07F098
:1037A000E4CF06F0E4CF05F0E4CF04F0E4CF03F07B
:1037B000E4CF02F0E4CF01F0E4CF00F0E4CFD9FF92
:1037C000120000C0E5FF01C0E5FF02C0E5FF03C035
:1037D000E5FF04012E51D8B40CD1A3A81DD0A4A894
:1037E0001BD00601A2510601A01905E1CBEC35F072
:1037F0000601A06BFED0000E0601A225006E016A34
:10380000040E012200C0E9FF01C0EAFFEFCF9CF6E1
:10381000A22B9CC673FFEDD0A3AAEBD0A4AAE9D03B
:1038200071A205D00601A181CBEC35F0E2D071A4E4
:1038300005D00601A183CBEC35F0DBD071A048D0D8
:1038400074CF9CF62FC400F0016A008E9CC602F073
:10385000036A0250001803E10350011801E004D08C
:103860000601A1897196C5D006019C5104E09C51C6
:1038700004012F1929E10601A199719606019C51B5
:1038800003E00601A19702D00601A1879CC6A5F618
:103890009EC6A6F606019E51006E00040601A76FA3
:1038A000600E0601A625006E016A000E012200C00E
:1038B000E9FF01C0EAFF9CC6EFFFA62BA651800AD4
:1038C00002E10601A66B95D00601A199718691D0FF
:1038D00074CF9CF60601A1A921D02FC400F0016A83
:1038E000008E9CC602F0036A0250001803E10350E8
:1038F000011801E011D0A39A7198929A0601A05183
:1039000004E1736ACBEC35F007D000C473FF010EFD
:103910000601A26FA3886DD071866BD006019C5101
:103920000601A5270601A6510601A7191BE10601FC
:10393000A5510CE1A6C69EF60601A1B712D0A39A26
:103940007198929A736ACBEC35F00BD00601A18581
:10395000A1B707D0A39A7198929A010E736ECBEC1F
:1039600035F047D00601A65106019F1908E106016E
:103970009F5106019E1903E0CBEC35F03AD09EC66C
:1039800000F0016A004A012AE56A800EE56E0150E6
:10399000E56E0050E56E02EC29F0006E040EE126A3
:1039A000005006019D6F0601A6190FE19CC600F0AC
:1039B0001F0E00140601A76F006E020E0024A76FF1
:1039C00006019E510601A727A79FA6C600F0060183
:1039D000A62B016A600E0026000E012200C0E9FF3E
:1039E00001C0EAFF9CC6EFFFA651800A02E1060172
:1039F000A66BE4CF03F0E4CF02F0E4CF01F0E4CF14
:103A000000F0120000C0E5FF01C0E5FF02C0E5FFC5
:103A100003C0E5FF04C0E5FF05C0E5FF06C0E5FF04
:103A200007C0E5FF08C0E5FF09C0E5FF006A016ABD
:103A3000040E015CD8B0E2D0390E04013125026ECB
:103A4000036A040E032202C0E9FF03C0EAFFEFCFBE
:103A500002F00250FF0A01E1CAD004013139E84402
:103A60001F0B026E940E0224036E046A060E0422DB
:103A700003C0E9FF04C0EAFFEFCF03F031C404F054
:103A8000070E0416010E056E000E066E045006E0C9
:103A9000E86CD89005360636010FFCE3076A035040
:103AA00005160750061605500610D880E866D8900F
:103AB000056A05360550D880E866D890056A05364F
:103AC0000550036E046A920E0226060E042202C0FE
:103AD000E9FF04C0EAFFEFCF05F031C406F0070E9E
:103AE0000616010E076E000E086E065006E0E86C22
:103AF000D89007360836010FFCE305C006F0096AC6
:103B0000065007160950081607500810D880E866B6
:103B1000D890076A07360750D880E866D890076AB9
:103B200007360350071801E162D003501FE004017B
:103B30003151066E070E0616010E076E06500DE097
:103B400006E6E86CD8900736010FFDE306D0D89062
:103B500007BED8800732010FFBE30550071202C0F1
:103B6000E9FF04C0EAFF07C0EFFF26D002C0E9FF6B
:103B700004C0EAFFEFCF05F004013151066E070ED5
:103B80000616010E076E06500DE006E6E86CD890AA
:103B90000736010FFDE306D0D89007BED880073264
:103BA000010FFBE3071C066E0550061602C0E9FF75
:103BB00004C0EAFF06C0EFFF035003E1036A032AD3
:103BC00001D0036A31C404F0E56A0350E56EE56A8A
:103BD0000450E56E000EE56E5F0EE56ED00EE56EEC
:103BE00074EC30F0070EE126012A01C000F0040158
:103BF000312B100E315DD8A01BD7316B0050E4CFB4
:103C000009F0E4CF08F0E4CF07F0E4CF06F0E4CF0A
:103C100005F0E4CF04F0E4CF03F0E4CF02F0E4CF0A
:103C200001F0E4CF00F01200D9CFE5FFE1CFD9FFDA
:103C300000C0E5FF01C0E5FF02C0E5FF03C0E5FFEE
:103C400004C0E5FF05C0E5FF06C0E5FF07C0E5FFCE
:103C5000020EDBCF00F0030EDBCF01F0040EDBCF52
:103C600002F0050EDBCF03F0060EDBCF04F0070EEB
:103C7000DBCF05F0080EDBCF06F0090EDBCF07F037
:103C800000500601656F0150666F0250676F035068
:103C9000686F04500601696F05506A6F06506B6FBC
:103CA00007506C6F0601655106016B03F4CF01F0FC
:103CB000F3CF00F0005006016F6F0150706F0601E6
:103CC000655106016903F4CF01F0F3CF00F0005015
:103CD00006016D6F01506E6F0601685106016903A0
:103CE000F3CF00F00601705100260050706F0601FE
:103CF000675106016A03F3CF01F00150002600501E
:103D00000601706F0601675106016903F4CF01F0E7
:103D1000F3CF00F006016F510026705101220050D0
:103D20006F6F0150706F0601665106016A03F4CF90
:103D300003F0F3CF02F0025000260350012200509E
:103D400006016F6F0150706F0601665106016B032B
:103D5000F3CF00F000500601746F060166510601B2
:103D60006903F4CF01F0F3CF00F000500601726F49
:103D70000150736F0601655106016C03F3CF00F02B
:103D800000500601786F0601655106016A03F4CF01
:103D900001F0F3CF00F000500601766F0150776F0D
:103DA0000601716B0601756B0601715106016D25E7
:103DB000006E0601725106016E21016E06017351FB
:103DC00006016F21026E0601745106017021036E17
:103DD00000506D6F01506E6F02506F6F0350706F27
:103DE0000601755106016D25006E0601765106012A
:103DF0006E21016E0601775106016F21026E0601E8
:103E0000785106017021036E03C0E9FF02C0F4FF80
:103E100001C0F3FF0050E4CF07F0E4CF06F0E4CF99
:103E200005F0E4CF04F0E4CF03F0E4CF02F0E4CFF8
:103E300001F0E4CF00F0E4CFD9FF1200D9CFE5FFC5
:103E4000E1CFD9FF00C0E5FF01C0E5FF02C0E5FFFB
:103E500003C0E5FF04C0E5FF05C0E5FF06C0E5FFC0
:103E600007C0E5FF08C0E5FF09C0E5FF0AC0E5FFA0
:103E70000BC0E5FF0CC0E5FF0DC0E5FF0EC0E5FF80
:103E80000FC0E5FF020EDBCF00F0030EDBCF01F029
:103E9000040EDBCF02F0050EDBCF03F0060EDBCF06
:103EA00004F0070EDBCF05F0080EDBCF06F0200E86
:103EB000076E086A06C009F00A6A0B6A0C6AE56AAE
:103EC000E56AE56A0950E56E0350E56E0250E56E5D
:103ED0000150E56E0050E56E7DEC21F00D6E080E90
:103EE000E126300E0D263A0E0D5C05E30D500E6EE8
:103EF000270E0E240D6EFF0E07260822E00E072463
:103F00000E6E000E08200F6E0EC0E9FF0FC0EAFF14
:103F10000DC0EFFF0C50E56E0B50E56E0A50E56EDC
:103F20000950E56E0350E56E0250E56E0150E56EF6
:103F30000050E56ED2EC23F0006EF3CF01F0F4CF29
:103F400002F0E9CF03F0080EE12600500110021044
:103F50000310D8A4AFD707C000F008C001F004C018
:103F600002F005C003F000C004F001C005F0004AF3
:103F7000012AE00E0426000E052204C0E9FF05C058
:103F8000EAFFEFCF04F002C0E9FF03C0EAFF04C07C
:103F9000EFFF024A032A000E015C02E1200E005CE2
:103FA000E2E302C0E9FF03C0EAFF000EEF6AE4CFDC
:103FB0000FF0E4CF0EF0E4CF0DF0E4CF0CF0E4CF3F
:103FC0000BF0E4CF0AF0E4CF09F0E4CF08F0E4CF3F
:103FD00007F0E4CF06F0E4CF05F0E4CF04F0E4CF3F
:103FE00003F0E4CF02F0E4CF01F0E4CF00F0E4CF3F
:103FF000D9FF1200D9CFE5FFE1CFD9FF00C0E5FF1F
:1040000001C0E5FF02C0E5FF03C0E5FF04C0E5FF16
:1040100005C0E5FF06C0E5FF07C0E5FF08C0E5FFF6
:1040200009C0E5FF0AC0E5FF0BC0E5FF0CC0E5FFD6
:104030000DC0E5FF020EDBCF00F0030EDBCF01F079
:10404000040EDBCF02F0050EDBCF03F0060EDBCF54
:1040500004F0070EDBCF05F0080EDBCF06F0090EEB
:10406000DBCF07F0D88003AED890086A0836085036
:104070000FE0031C0C6E021C0B6E011C0A6E001C70
:10408000096E092A0DE10A2A0BE10B4A0C2A08D015
:1040900000C009F001C00AF002C00BF003C00CF030
:1040A000D88007AED890006A003600500FE0071C99
:1040B0000D6E061C036E051C026E041C016E012AA7
:1040C0000DE1022A0BE1034A0D2A08D004C001F0D9
:1040D00005C002F006C003F007C00DF00D50E56EFC
:1040E0000350E56E0250E56E0150E56E0C50E56E32
:1040F0000B50E56E0A50E56E0950E56ED2EC23F0E8
:10410000016EF3CF02F0F4CF03F0E9CF04F0080E14
:10411000E1260050081A085016E0041C076E031C24
:10412000066E021C056E011C006E002A04E1052AC1
:1041300002E1064A072A07C0E9FF06C0F4FF05C0EE
:10414000F3FF005007D004C0E9FF03C0F4FF02C032
:10415000F3FF0150E4CF0DF0E4CF0CF0E4CF0BF00F
:10416000E4CF0AF0E4CF09F0E4CF08F0E4CF07F0A1
:10417000E4CF06F0E4CF05F0E4CF04F0E4CF03F0A1
:10418000E4CF02F0E4CF01F0E4CF00F0E4CFD9FFB8
:10419000120000C0E5FF01C0E5FF02C0E5FF03C05B
:1041A000E5FF04C0E5FF05C0E5FF006A390E002405
:1041B000016E026A040E022201C0E9FF02C0EAFF9A
:1041C000EFCF01F00150FF0A01E185D001380F0B5C
:1041D000026E036A800E02260F0E032202C0E9FF60
:1041E00003C0EAFFEFCF02F0070E0116010E036EC7
:1041F000000E046E015006E0E86CD89003360436D9
:10420000010FFCE3056A0250031605500416035023
:104210000410D880E866D890036A033603502DE175
:104220000038E8441F0B016E026A940E0126060E48
:10423000022201C0E9FF02C0EAFFEFCF03F0005005
:10424000046E070E0416010E056E04500DE006E61E
:10425000E86CD8900536010FFDE306D0D89005BE76
:10426000D8800532010FFBE30350051201C0E9FFBE
:1042700002C0EAFF05C0EFFF2ED00038E8441F0B54
:10428000016E026A940E0126060E022201C0E9FFA9
:1042900002C0EAFFEFCF03F00050046E070E0416D1
:1042A000010E056E04500DE006E6E86CD890053668
:1042B000010FFDE306D0D89005BED8800532010F6E
:1042C000FBE3051C046E0350041601C0E9FF02C0A5
:1042D000EAFF04C0EFFF002A100E005CD8A066D7EA
:1042E000E4CF05F0E4CF04F0E4CF03F0E4CF02F034
:1042F000E4CF01F0E4CF00F01200D9CFE5FFE1CF29
:10430000D9FF00C0E5FF01C0E5FF02C0E5FF03C023
:10431000E5FF04C0E5FF05C0E5FF06C0E5FF07C0F7
:10432000E5FF08C0E5FF09C0E5FF0AC0E5FF020E92
:10433000DBCF00F0030EDBCF01F0040EDBCF02F089
:10434000050EDBCF03F0060EDBCF04F0070EDBCF4C
:1043500005F0080EDBCF06F0090EDBCF07F0086A88
:10436000045005100610071005E1E968F468F368C9
:10437000E86847D0096A0750800BE8440A6E0A5083
:104380001BE1045004260536063607360750035C49
:1043900008E10650025C05E10550015C02E10450B1
:1043A000005C06E2D890073206320532043204D0AF
:1043B000092A09C008F0DFD70750035C08E106505E
:1043C000025C05E10550015C02E10450005C08E379
:1043D0000450005E0550015A0650025A0750035A15
:1043E000D890073206320532043208C009F00806B8
:1043F0000950E2E103C0E9FF02C0F4FF01C0F3FF8E
:104400000050E4CF0AF0E4CF09F0E4CF08F0E4CFA5
:1044100007F0E4CF06F0E4CF05F0E4CF04F0E4CFFA
:1044200003F0E4CF02F0E4CF01F0E4CF00F0E4CFFA
:10443000D9FF1200D9CFE5FFE1CFD9FF00C0E5FFDA
:1044400001C0E5FF02C0E5FF03C0E5FF04C0E5FFD2
:1044500005C0E5FF06C0E5FF07C0E5FF020EDBCFA4
:1044600000F0030EDBCF01F0040EDBCF02F00050B2
:104470000B0F036E000E0120046E000E0220E56A91
:10448000F46AF66AF76A03C0E9FF04C0F3FF8CEC34
:1044900035F00050070F036E000E0120046E000E71
:1044A0000220056E0050030F066E000E0120076EFD
:1044B000000E0220E56AF46AF66AF76A06C0E9FFB0
:1044C00007C0F3FF8CEC35F0E56AF46AF66AF76A28
:1044D00003C0E9FF04C0F3FF05508CEC35F0005039
:1044E000010F036E000E0120046E000E0220056E07
:1044F0000050020F066E000E0120076E000E022013
:10450000E56A06C0E9FF07C0F3FF0AEC36F0E56A8A
:1045100003C0E9FF04C0F3FF05500AEC36F0E56A7A
:1045200000C0E9FF01C0F3FF02500AEC36F0E4CF0F
:1045300007F0E4CF06F0E4CF05F0E4CF04F0E4CFD9
:1045400003F0E4CF02F0E4CF01F0E4CF00F0E4CFD9
:10455000D9FF120025642025640A0000D9CFE5FFA9
:10456000E1CFD9FF00C0E5FF01C0E5FF02C0E5FFD4
:1045700003C0E5FF04C0E5FF05C0E5FF06C0E5FF99
:1045800007C0E5FF08C0E5FF09C0E5FF0AC0E5FF79
:104590000BC0E5FF0CC0E5FF0DC0E5FF020EDBCF51
:1045A00000F0030EDBCF01F0040EDBCF02F0050EAE
:1045B000DBCF03F0060EDBCF04F003C0E5FF04C041
:1045C000F4FF00C0E9FF01C0F3FF0250E7EC35F053
:1045D0000050020F056E000E0120066E000E022034
:1045E000076EE86A04BEFF0E086E096E09300830D7
:1045F0000D6E0C6A0C320450E8407F0B0C12043034
:1046000003300B6E0A6A0A320AC0E5FF0BC0F4FFE2
:104610000CC0F6FF0DC0F7FF05C0E9FF06C0F3FFB1
:1046200007508CEC35F0080E0026000E0122022205
:10463000E56AF46AF66AF76A00C0E9FF01C0F3FFB1
:1046400002508CEC35F0E4CF0DF0E4CF0CF0E4CF69
:104650000BF0E4CF0AF0E4CF09F0E4CF08F0E4CFA8
:1046600007F0E4CF06F0E4CF05F0E4CF04F0E4CFA8
:1046700003F0E4CF02F0E4CF01F0E4CF00F0E4CFA8
:10468000D9FF120000C0E5FF01C0E5FF02C0E5FF51
:1046900003C0E5FF06019F5106019E1901E166D0A6
:1046A0009FC600F0002A009E016A600E0026000EE0
:1046B000012200C0E9FF01C0EAFFEFCFA9F61F0EFB
:1046C0000601A9179FC6A8F6A9510601A827A85157
:1046D000006E020E0024A86FA89FFFEC32F0006E5F
:1046E000005003E1006A002A01D0006AFFEC32F0BA
:1046F0000601A96FA9C601F0800E0116A9C602F035
:104700001F0E021602C003F002C0A9F6035003E117
:104710009EC69FF63ED000501EE0015025E0FFEC03
:1047200032F0006E0601A951026E0204A96F00501A
:10473000420A1AE000504E0A03E132EC30F014D085
:104740000050460A03E1FFEC35F00ED00050490A54
:104750000BE1FF0009D09FC6AAF6015003E082ECEE
:104760002CF002D0C8EC2BF0A8C69FF604012B5108
:1047700004012C1906E00601A05103E17BEC25F0B1
:1047800008D092BA06D00601A05103E172B2CBEC78
:1047900035F0E4CF03F0E4CF02F0E4CF01F0E4CF52
:1047A00000F01200D9CFE5FFE1CFD9FF00C0E5FF4F
:1047B00001C0E5FF02C0E5FF03C0E5FF04C0E5FF5F
:1047C00005C0E5FF06C0E5FF07C0E5FF08C0E5FF3F
:1047D00009C0E5FF0AC0E5FF0BC0E5FF0CC0E5FF1F
:1047E0000DC0E5FF020EDBCF00F0030EDBCF01F0C2
:1047F000040EDBCF02F0050EDBCF03F0060EDBCF9D
:1048000004F0070EDBCF05F0080EDBCF06F0090E33
:10481000DBCF07F0086A096A0A6A0B6A200E0C6E81
:104820000350800BE8440D6E00500026013602361E
:1048300003360850082609360A360B360D50D8A420
:10484000088007500B5C08E106500A5C05E1055042
:10485000095C02E10450085C09E30450085E05505D
:10486000095A06500A5A07500B5A00800C040D6E64
:104870000DC00CF00D50D4E103C0E9FF02C0F4FFFD
:1048800001C0F3FF0050E4CF0DF0E4CF0CF0E4CF13
:104890000BF0E4CF0AF0E4CF09F0E4CF08F0E4CF66
:1048A00007F0E4CF06F0E4CF05F0E4CF04F0E4CF66
:1048B00003F0E4CF02F0E4CF01F0E4CF00F0E4CF66
:1048C000D9FF120000C0E5FF01C0E5FF03C0E5FF0E
:1048D00004C0E5FF05C0E5FF06C0E5FF07C0E5FF32
:1048E00008C0E5FF09C0E5FF0AC0E5FF0BC0E5FF12
:1048F00088C600F089C601F00601883F01D0892BE7
:104900000050E56EBDEC35F0E652076E046A056AAC
:10491000066A88C600F089C601F00601883F01D00A
:10492000892B0050E56EBDEC35F0E6520B6A0A6E3D
:10493000086A0850041205120A5006120B5007129A
:1049400088C600F089C601F00601883F01D0892B96
:104950000050E56EBDEC35F0E652036E006A03C010
:1049600001F0E86A03BEFF0E086E096E00500412E3
:1049700001500512085006120950071288C600F0AF
:1049800089C601F00601883F01D0892B0050E56EF1
:10499000BDEC35F0E652016A041201500512061210
:1049A000071207C0E9FF06C0F4FF05C0F3FF04507B
:1049B000E4CF0BF0E4CF0AF0E4CF09F0E4CF08F045
:1049C000E4CF07F0E4CF06F0E4CF05F0E4CF04F045
:1049D000E4CF03F0E4CF01F0E4CF00F01200D9CF30
:1049E000E5FFE1CFD9FF00C0E5FF01C0E5FF02C050
:1049F000E5FF03C0E5FF04C0E5FF05C0E5FF06C015
:104A0000E5FF07C0E5FF020EDBCF00F0030EDBCFB2
:104A100001F0040EDBCF02F0050EDBCF03F002C085
:104A200006F00650046E800A33E100C0E9FF01C0C1
:104A3000F3FF025053EC34F0056EF3CF06F0F4CFE1
:104A400007F003C0E5FF05C0E9FF06C0F3FF07500C
:104A50000AEC36F000C0E9FF01C0F3FF025053EC4E
:104A600034F0056EF3CF06F0F4CF07F0052A02E329
:104A7000064A072A05C0E5FF06C0F4FF07C0F6FF97
:104A800000C0E9FF01C0F3FF0250AEEC35F020D0CA
:104A900004C000F000AA1CD0007A0050046E04E1AB
:104AA000035058EC36F014D00450010A04E10350CE
:104AB00002EC00F00DD004500F0A04E103507BEC2F
:104AC00032F006D004500E0A03E103506BEC36F0CE
:104AD000E4CF07F0E4CF06F0E4CF05F0E4CF04F034
:104AE000E4CF03F0E4CF02F0E4CF01F0E4CF00F034
:104AF000E4CFD9FF120000C0E5FF01C0E5FF02C00E
:104B0000E5FF03C0E5FF72A277D0DCEC33F0006E66
:104B1000005005E104012C6B04012B6B6DD02CC4FB
:104B200001F000500126DCEC33F0026E000602506A
:104B3000230A1FE1010E005CD8A05CD0DCEC33F04E
:104B4000036E690A03E14AEC32F054D00350720A52
:104B500003E1CBEC35F04ED00350730A01E04AD0AC
:104B6000928A7186A38AA398745074507198718840
:104B700041D00250430A05E00250420A01E03AD017
:104B800001D0008E0601A26B00C0A3F60050040104
:104B9000006F0601A22B04012C51011814E0DCEC7B
:104BA00033F0006E0601A327000E0601A225026E57
:104BB000036A040E032202C0E9FF03C0EAFF00C03B
:104BC000EFFFA22BE8D7000E0601A225006E026AB5
:104BD000040E02220601A31D036E032A00C0E9FF92
:104BE00002C0EAFF03C0EFFF0601A22BA2C6A0F697
:104BF00006019A6B01C02CF4E4CF03F0E4CF02F07D
:104C0000E4CF01F0E4CF00F01200D9CFE5FFE1CF0F
:104C1000D9FF00C0E5FF01C0E5FF02C0E5FF03C00A
:104C2000E5FF04C0E5FF05C0E5FF06C0E5FF020E95
:104C3000DBCF00F0030EDBCF01F0040EDBCF02F080
:104C4000050EDBCF03F003C004F0056A0350D8B4AF
:104C500053D000C0E9FF01C0F3FF02509DEC35F0D6
:104C6000066E430A03E1010E056E038E0406002A58
:104C700002E3014A022AA39A7198929AA398A4A8DF
:104C8000FED77280736A0000A4A8FED7729003C09A
:104C900073FF0000A4A8FED7055005E0420E736E16
:104CA0000324056E05D0620E736E620E0324056E3A
:104CB00004C003F0035015E00000A4A8FED700C014
:104CC000E9FF01C0F3FF02509DEC35F0046E04C013
:104CD00073FF045005260306002A02E3014A022A54
:104CE000E9D70000A4A8FED7051C736E732A000044
:104CF000A4A8FED7CBEC35F0E4CF06F0E4CF05F066
:104D0000E4CF04F0E4CF03F0E4CF02F0E4CF01F00D
:104D1000E4CF00F0E4CFD9FF120000C0E5FF01C0EE
:104D2000E5FF02C0E5FF9EAA77D0ABA208D0040140
:104D3000326BAE500000AE50AB98AB886DD0ABA4D8
:104D400005D0010E0401326FAE5066D0ABB004D076
:104D50000401326BAE5060D0AECF00F0040132518E
:104D6000010A17E100500EE1020E0401326F040146
:104D7000336B346B9EA802D0010EAD6E010E0401A0
:104D8000356F06D00401326B9EA802D0FF0EAD6EC7
:104D900043D004013251020A01E03ED00401333F06
:104DA00001D0342B040134510601975D04E1040164
:104DB00033510601965D04E233C496F634C497F687
:104DC000010E0401345D02E1FF0E335D25E2010EA8
:104DD0000401345D02E1000E335D11E3040133513F
:104DE000016EFF0E3425026E000E0126050E022212
:104DF00001C0E9FF02C0EAFF00C0EFFF0DD0000EC6
:104E000004013325016E020E3421026E01C0E9FF58
:104E100002C0EAFF00C0EFFFE4CF02F0E4CF01F0F0
:104E2000E4CF00F01200D9CFE5FFE1CFD9FF00C0F9
:104E3000E5FF01C0E5FF02C0E5FF03C0E5FF04C0D8
:104E4000E5FF05C0E5FF06C0E5FF07C0E5FF08C0B8
:104E5000E5FF09C0E5FF0AC0E5FF0BC0E5FF0CC098
:104E6000E5FF020EDBCF00F0030EDBCF01F0040EF6
:104E7000DBCF02F0050EDBCF03F0060EDBCF04F034
:104E8000070EDBCF05F0080EDBCF06F0090EDBCFF7
:104E900007F002500A6E0150096E0050086E06C0FD
:104EA0000BF007C00CF0FF0E062607220B500C106B
:104EB0001AE003C0E9FF04C0F3FF05509DEC35F094
:104EC0000B6E032A02E3044A052A0BC0E5FF08C063
:104ED000E9FF09C0F3FF0A500AEC36F0082ADFE3C5
:104EE000094A0A2ADCD702C0F4FF01C0F3FF0050D0
:104EF000E4CF0CF0E4CF0BF0E4CF0AF0E4CF09F0FC
:104F0000E4CF08F0E4CF07F0E4CF06F0E4CF05F0FB
:104F1000E4CF04F0E4CF03F0E4CF02F0E4CF01F0FB
:104F2000E4CF00F0E4CFD9FF1200D9CFE5FFE1CF05
:104F3000D9FF00C0E5FF01C0E5FF02C0E5FF03C0E7
:104F4000E5FF04C0E5FF05C0E5FF06C0E5FF07C0BB
:104F5000E5FF020EDBCF00F0030EDBCF01F0040E05
:104F6000DBCF02F0050EDBCF03F02CC42DF40401DF
:104F70002B5104012D5F2D51046E04042D6F03C0CD
:104F800004F0056A030E0426D8B0052A2DC406F0E5
:104F9000076A0750800FF36E0550800FF35C02E143
:104FA0000450065C02E2E8682ED0020E035C02E2C6
:104FB000E86A29D003060350E56E30EC31F0E65282
:104FC000046A0350045C14E204500024056EE86A8D
:104FD0000120066EE86A022005C0E9FF06C0F3FF63
:104FE0009DEC35F0042AE56E30EC31F0E652E9D75D
:104FF0002CC42DF404012B5104012D5F2D51006EA2
:1050000000042D6FE86AE4CF07F0E4CF06F0E4CFA8
:1050100005F0E4CF04F0E4CF03F0E4CF02F0E4CFF6
:1050200001F0E4CF00F0E4CFD9FF120000C0E5FFAB
:1050300001C0E5FF02C0E5FF03C0E5FF05C0E5FFD5
:10504000006A016A0150800F7F0F02E1000E005CD0
:105050000FE30050026EFF0E0124036E000E0226C5
:10506000050E032202C0E9FF03C0EAFFEF6A0BD07E
:10507000000E0024026E020E0120036E02C0E9FF42
:1050800003C0EAFFEF6A004A012A0150800F7F0F38
:1050900002E1FF0E005CD6E3948E820E006E0F0ECE
:1050A000016E0F0E036E380E0026035001220F0E04
:1050B000036E800E005E0350015A820E026E0F0EC8
:1050C000036E0F0E056E380E0226055003220F0EDA
:1050D000056E800E025E0550035A02C0E9FF03C050
:1050E000EAFFEFCF02F0029E00C0E9FF01C0EAFF35
:1050F00002C0EFFFB88654EC36F032EC36F0AC84E8
:10510000AB8C9F9AAB8EE4CF05F0E4CF03F0E4CFF5
:1051100002F0E4CF01F0E4CF00F01200D9CFE5FFB8
:10512000E1CFD9FF00C0E5FF01C0E5FF02C0E5FF08
:1051300003C0E5FF04C0E5FF05C0E5FF06C0E5FFCD
:1051400007C0E5FF08C0E5FF09C0E5FF0AC0E5FFAD
:10515000020EDBCF00F0030EDBCF01F0040EDBCF3D
:1051600002F0050EDBCF03F0060EDBCF04F003C028
:10517000E5FF04C0F4FF00C0E9FF01C0F3FF0250E7
:10518000E7EC35F0020E0026000E01220222E86A4A
:1051900004BEFF0E056E066E063005300A6E096A03
:1051A00009320450E8407F0B091204300330086EC6
:1051B000076A073207C0E5FF08C0F4FF09C0F6FF21
:1051C0000AC0F7FF00C0E9FF01C0F3FF02508CECFA
:1051D00035F0E4CF0AF0E4CF09F0E4CF08F0E4CFF3
:1051E00007F0E4CF06F0E4CF05F0E4CF04F0E4CF1D
:1051F00003F0E4CF02F0E4CF01F0E4CF00F0E4CF1D
:10520000D9FF1200D9CFE5FFE1CFD9FF00C0E5FFFC
:1052100001C0E5FF02C0E5FF03C0E5FF04C0E5FFF4
:1052200005C0E5FF06C0E5FF020EDBCF00F0030E70
:10523000DBCF01F0040EDBCF02F0050EDBCF03F075
:10524000D88001AED890046A0436045007E0011CEF
:10525000066E001C056E054A062A04D000C005F043
:1052600001C006F0D88003AED89007E3031C016E9E
:10527000021C006E004A012A04D002C000F003C0E4
:1052800001F00150E56E0050E56E0650E56E0550E8
:10529000E56E25EC2CF0006EF3CF01F0040EE12654
:1052A00004500AE0011C036E001C026E024A032A2D
:1052B00003C0F3FF025003D001C0F3FF0050E4CF5E
:1052C00006F0E4CF05F0E4CF04F0E4CF03F0E4CF40
:1052D00002F0E4CF01F0E4CF00F0E4CFD9FF1200F8
:1052E000D9CFE5FFE1CFD9FF00C0E5FF01C0E5FF61
:1052F00002C0E5FF03C0E5FF04C0E5FF05C0E5FF10
:10530000020EDBCF00F0030EDBCF01F0040EDBCF8B
:1053100002F0050EDBCF03F088C604F089C605F065
:105320000601883F01D0892B0350E56E0450E56EDD
:10533000D5EC32F0E652E65288C604F089C605F094
:105340000601883F01D0892B0250056EE56E04509E
:10535000E56ED5EC32F0E652E65288C604F089C616
:1053600005F00601883F01D0892B0150E56E0450FD
:10537000E56ED5EC32F0E652E65288C604F089C6F6
:1053800005F00601883F01D0892B0050E56E0450DE
:10539000E56ED5EC32F0E652E652E4CF05F0E4CF0C
:1053A00004F0E4CF03F0E4CF02F0E4CF01F0E4CF67
:1053B00000F0E4CFD9FF1200D9CFE5FFE1CFD9FF4C
:1053C00000C0E5FF01C0E5FF02C0E5FF03C0E5FF47
:1053D00004C0E5FF05C0E5FF06C0E5FF020EDBCF18
:1053E00000F0030EDBCF01F0040EDBCF02F006016C
:1053F000995119E162EC24F0036EF3CF04F0F4CF7D
:1054000005F0E9CF06F003C0E5FF04C0F4FF05C0D6
:10541000F6FF06C0F7FF00C0E9FF01C0F3FF02502E
:105420008CEC35F01ED006019951010A1AE100C03A
:10543000E9FF01C0F3FF02509DEC33F0006EF3CFA3
:1054400001F0F4CF02F0E9CF03F00350E56E025013
:10545000E56E0150E56E0050E56E70EC29F0040E2B
:10546000E126E4CF06F0E4CF05F0E4CF04F0E4CF8A
:1054700003F0E4CF02F0E4CF01F0E4CF00F0E4CF9A
:10548000D9FF1200D9CFE5FFE1CFD9FF00C0E5FF7A
:1054900001C0E5FF02C0E5FF03C0E5FF04C0E5FF72
:1054A000020EDBCF00F0030EDBCF01F0040EDBCFEA
:1054B00002F00050070F036E000E0120046E000E74
:1054C0000220E56E0450E56E0350E56EB4EC30F05A
:1054D000030EE1260050230F036E000E0120046E20
:1054E000000E0220E56E0450E56E0350E56ED7EC29
:1054F0002CF0030EE1260050330F036E000E012046
:10550000046E000E0220E56E0450E56E0350E56E59
:105510000BEC2BF0030EE126440E0026000E0122B8
:1055200002220250E56E0150E56E0050E56E0BEC74
:105530002BF0030EE126E4CF04F0E4CF03F0E4CF38
:1055400002F0E4CF01F0E4CF00F0E4CFD9FF120085
:10555000D9CFE5FFE1CFD9FF00C0E5FF01C0E5FFEE
:1055600002C0E5FF03C0E5FF04C0E5FF05C0E5FF9D
:1055700006C0E5FF020EDBCF00F0030EDBCF01F02B
:10558000040EDBCF02F0050EDBCF03F0060EDBCFFF
:1055900004F0070EDBCF05F0080EDBCF06F0D88055
:1055A00003AED89015E306500A0A12E104C0E9FFE1
:1055B00005C0EAFF2D0EEF6E044A052A031E021EE7
:1055C000011E006C05E1012A03E1022AD8B4032A76
:1055D0000650E56E0550E56E0450E56E0350E56E2D
:1055E0000250E56E0150E56E0050E56E1EEC1FF0B6
:1055F000070EE126E4CF06F0E4CF05F0E4CF04F097
:10560000E4CF03F0E4CF02F0E4CF01F0E4CF00F008
:10561000E4CFD9FF1200D9CFE5FFE1CFD9FF00C019
:10562000E5FF01C0E5FF02C0E5FF03C0E5FF04C0E0
:10563000E5FF020EDBCF00F0030EDBCF01F0040E1E
:10564000DBCF02F00250E56E0150E56E0050E56ED2
:10565000B4EC30F0030EE1260050010F036E000E93
:105660000120046E000E0220E56E0450E56E03502A
:10567000E56EB4EC30F0030EE1260050020F036E2D
:10568000000E0120046E000E0220E56E0450E56E4F
:105690000350E56EB4EC30F0030EE1260F0E002649
:1056A000000E012202220250E56E0150E56E00500C
:1056B000E56E23EC2EF0030EE126E4CF04F0E4CFF8
:1056C00003F0E4CF02F0E4CF01F0E4CF00F0E4CF48
:1056D000D9FF1200D9CFE5FFE1CFD9FF00C0E5FF28
:1056E00001C0E5FF02C0E5FF03C0E5FF04C0E5FF20
:1056F00005C0E5FF020EDBCF00F0030EDBCF01F0AB
:10570000040EDBCF02F000500B0F036E000E0120E1
:10571000046E000E0220E56AF46AF66AF76A03C0B6
:10572000E9FF04C0F3FF8CEC35F00050070F036E67
:10573000000E0120046E000E0220056E030E0026EE
:10574000000E01220222E56AF46AF66AF76A00C0D6
:10575000E9FF01C0F3FF02508CEC35F0E56AF46A12
:10576000F66AF76A03C0E9FF04C0F3FF05508CEC4A
:1057700035F0E4CF05F0E4CF04F0E4CF03F0E4CF5C
:1057800002F0E4CF01F0E4CF00F0E4CFD9FF120043
:1057900000C0E5FF01C0E5FF03C0E5FFFFEC32F00C
:1057A000006E020A0DE00050780A0FE00050790AFE
:1057B00017E000507A0A1FE000507C0A2AE03ED031
:1057C000FFEC32F00401236F39D0800EE56E040E39
:1057D000E56E930EE56E8BEC11F0030EE1262ED0F4
:1057E000800EE56E060EE56E000EE56E8BEC11F098
:1057F000030EE12623D0FFEC32F0006A016EFFECCD
:1058000032F0036A00240601866F03500120876F7F
:1058100015D0FFEC32F0006A016EFFEC32F0036A43
:10582000002603500122FFEC32F0E56E0150E56ED8
:105830000050E56EBFEC2EF0030EE126E4CF03F03E
:10584000E4CF01F0E4CF00F01200D9CFE5FFE1CFC3
:10585000D9FF00C0E5FF01C0E5FF02C0E5FF03C0BE
:10586000E5FF04C0E5FF05C0E5FF06C0E5FF020E49
:10587000DBCF00F0030EDBCF01F0040EDBCF02F034
:10588000050EDBCF03F0046A056A0350800BE84481
:10589000066E065011E10250022603360350015CE9
:1058A00002E10250005C04E2D8900332023204D0DC
:1058B000052A05C004F0E9D70350015C02E102505B
:1058C000005C04E30250005E0350015AD89003329A
:1058D000023204C005F004060550EEE101C0F3FFFA
:1058E0000050E4CF06F0E4CF05F0E4CF04F0E4CFBD
:1058F00003F0E4CF02F0E4CF01F0E4CF00F0E4CF16
:10590000D9FF120000C0E5FF01C0E5FF02C0E5FFBE
:1059100065EC36F0006EFFEC32F0016E4C0A03E1EC
:10592000FFEC32F03DD00150450A23E1000EE56E58
:10593000320EE56E460EE56E74EC30F0030EE12695
:10594000010E026E0050025C10E2FFEC32F0E56ADC
:10595000E56E000EE56E320EE56E480EE56E74ECF7
:1059600030F0050EE126022AEDD70A0E7BEC32F06C
:1059700017D00150570A03E150EC36F011D0015016
:10598000530A0EE1FFEC32F0410A0AE1FFEC32F07B
:10599000560A06E1FFEC32F0450A02E11FEC36F050
:1059A000E4CF02F0E4CF01F0E4CF00F01200D9CF51
:1059B000E5FFE1CFD9FF00C0E5FF01C0E5FF02C070
:1059C000E5FF03C0E5FF04C0E5FF020EDBCF00F0FA
:1059D000030EDBCF01F0040EDBCF02F00050060F08
:1059E000036E000E0120046E000E0220E56E0450CE
:1059F000E56E0350E56E23EC2EF0030EE126005019
:105A00000C0F036E000E0120046E000E0220E56EE6
:105A10000450E56E0350E56E23EC2EF0030EE126F4
:105A20000E0E0026000E012202220250E56E0150E9
:105A3000E56E0050E56E23EC2EF0030EE126E4CF78
:105A400004F0E4CF03F0E4CF02F0E4CF01F0E4CFC0
:105A500000F0E4CFD9FF1200D9CFE5FFE1CFD9FFA5
:105A600000C0E5FF01C0E5FF02C0E5FF03C0E5FFA0
:105A700004C0E5FF020EDBCF00F0030EDBCF01F028
:105A8000040EDBCF02F0E56AF46A00C0E9FF01C052
:105A9000F3FF0250E7EC35F00050020F036E000EEA
:105AA0000120046E000E0220E56AF46AF66AF76AC5
:105AB00003C0E9FF04C0F3FF8CEC35F0080E0026AC
:105AC000000E01220222E56AF46AF66AF76A00C053
:105AD000E9FF01C0F3FF02508CEC35F0E4CF04F095
